{
  "contractName": "NFTMarketplace",
  "abi": [
    {
      "inputs": [
        {
          "internalType": "string",
          "name": "_name",
          "type": "string"
        },
        {
          "internalType": "string",
          "name": "_symbol",
          "type": "string"
        },
        {
          "internalType": "uint256",
          "name": "_royalityFee",
          "type": "uint256"
        },
        {
          "internalType": "address",
          "name": "_artist",
          "type": "address"
        }
      ],
      "stateMutability": "nonpayable",
      "type": "constructor"
    },
    {
      "anonymous": false,
      "inputs": [
        {
          "indexed": true,
          "internalType": "address",
          "name": "owner",
          "type": "address"
        },
        {
          "indexed": true,
          "internalType": "address",
          "name": "approved",
          "type": "address"
        },
        {
          "indexed": true,
          "internalType": "uint256",
          "name": "tokenId",
          "type": "uint256"
        }
      ],
      "name": "Approval",
      "type": "event"
    },
    {
      "anonymous": false,
      "inputs": [
        {
          "indexed": true,
          "internalType": "address",
          "name": "owner",
          "type": "address"
        },
        {
          "indexed": true,
          "internalType": "address",
          "name": "operator",
          "type": "address"
        },
        {
          "indexed": false,
          "internalType": "bool",
          "name": "approved",
          "type": "bool"
        }
      ],
      "name": "ApprovalForAll",
      "type": "event"
    },
    {
      "anonymous": false,
      "inputs": [
        {
          "indexed": true,
          "internalType": "address",
          "name": "previousOwner",
          "type": "address"
        },
        {
          "indexed": true,
          "internalType": "address",
          "name": "newOwner",
          "type": "address"
        }
      ],
      "name": "OwnershipTransferred",
      "type": "event"
    },
    {
      "anonymous": false,
      "inputs": [
        {
          "indexed": false,
          "internalType": "uint256",
          "name": "id",
          "type": "uint256"
        },
        {
          "indexed": true,
          "internalType": "address",
          "name": "owner",
          "type": "address"
        },
        {
          "indexed": false,
          "internalType": "uint256",
          "name": "cost",
          "type": "uint256"
        },
        {
          "indexed": false,
          "internalType": "string",
          "name": "metadataURI",
          "type": "string"
        },
        {
          "indexed": false,
          "internalType": "uint256",
          "name": "timestamp",
          "type": "uint256"
        }
      ],
      "name": "Sale",
      "type": "event"
    },
    {
      "anonymous": false,
      "inputs": [
        {
          "indexed": true,
          "internalType": "address",
          "name": "from",
          "type": "address"
        },
        {
          "indexed": true,
          "internalType": "address",
          "name": "to",
          "type": "address"
        },
        {
          "indexed": true,
          "internalType": "uint256",
          "name": "tokenId",
          "type": "uint256"
        }
      ],
      "name": "Transfer",
      "type": "event"
    },
    {
      "inputs": [
        {
          "internalType": "address",
          "name": "to",
          "type": "address"
        },
        {
          "internalType": "uint256",
          "name": "tokenId",
          "type": "uint256"
        }
      ],
      "name": "approve",
      "outputs": [],
      "stateMutability": "nonpayable",
      "type": "function"
    },
    {
      "inputs": [],
      "name": "artist",
      "outputs": [
        {
          "internalType": "address",
          "name": "",
          "type": "address"
        }
      ],
      "stateMutability": "view",
      "type": "function"
    },
    {
      "inputs": [
        {
          "internalType": "address",
          "name": "owner",
          "type": "address"
        }
      ],
      "name": "balanceOf",
      "outputs": [
        {
          "internalType": "uint256",
          "name": "",
          "type": "uint256"
        }
      ],
      "stateMutability": "view",
      "type": "function"
    },
    {
      "inputs": [],
      "name": "cost",
      "outputs": [
        {
          "internalType": "uint256",
          "name": "",
          "type": "uint256"
        }
      ],
      "stateMutability": "view",
      "type": "function"
    },
    {
      "inputs": [
        {
          "internalType": "uint256",
          "name": "tokenId",
          "type": "uint256"
        }
      ],
      "name": "getApproved",
      "outputs": [
        {
          "internalType": "address",
          "name": "",
          "type": "address"
        }
      ],
      "stateMutability": "view",
      "type": "function"
    },
    {
      "inputs": [
        {
          "internalType": "uint256",
          "name": "",
          "type": "uint256"
        }
      ],
      "name": "holderOf",
      "outputs": [
        {
          "internalType": "address",
          "name": "",
          "type": "address"
        }
      ],
      "stateMutability": "view",
      "type": "function"
    },
    {
      "inputs": [
        {
          "internalType": "address",
          "name": "owner",
          "type": "address"
        },
        {
          "internalType": "address",
          "name": "operator",
          "type": "address"
        }
      ],
      "name": "isApprovedForAll",
      "outputs": [
        {
          "internalType": "bool",
          "name": "",
          "type": "bool"
        }
      ],
      "stateMutability": "view",
      "type": "function"
    },
    {
      "inputs": [],
      "name": "name",
      "outputs": [
        {
          "internalType": "string",
          "name": "",
          "type": "string"
        }
      ],
      "stateMutability": "view",
      "type": "function"
    },
    {
      "inputs": [],
      "name": "owner",
      "outputs": [
        {
          "internalType": "address",
          "name": "",
          "type": "address"
        }
      ],
      "stateMutability": "view",
      "type": "function"
    },
    {
      "inputs": [
        {
          "internalType": "uint256",
          "name": "tokenId",
          "type": "uint256"
        }
      ],
      "name": "ownerOf",
      "outputs": [
        {
          "internalType": "address",
          "name": "",
          "type": "address"
        }
      ],
      "stateMutability": "view",
      "type": "function"
    },
    {
      "inputs": [],
      "name": "renounceOwnership",
      "outputs": [],
      "stateMutability": "nonpayable",
      "type": "function"
    },
    {
      "inputs": [],
      "name": "royalityFee",
      "outputs": [
        {
          "internalType": "uint256",
          "name": "",
          "type": "uint256"
        }
      ],
      "stateMutability": "view",
      "type": "function"
    },
    {
      "inputs": [
        {
          "internalType": "address",
          "name": "from",
          "type": "address"
        },
        {
          "internalType": "address",
          "name": "to",
          "type": "address"
        },
        {
          "internalType": "uint256",
          "name": "tokenId",
          "type": "uint256"
        }
      ],
      "name": "safeTransferFrom",
      "outputs": [],
      "stateMutability": "payable",
      "type": "function"
    },
    {
      "inputs": [
        {
          "internalType": "address",
          "name": "from",
          "type": "address"
        },
        {
          "internalType": "address",
          "name": "to",
          "type": "address"
        },
        {
          "internalType": "uint256",
          "name": "tokenId",
          "type": "uint256"
        },
        {
          "internalType": "bytes",
          "name": "_data",
          "type": "bytes"
        }
      ],
      "name": "safeTransferFrom",
      "outputs": [],
      "stateMutability": "payable",
      "type": "function"
    },
    {
      "inputs": [
        {
          "internalType": "address",
          "name": "operator",
          "type": "address"
        },
        {
          "internalType": "bool",
          "name": "approved",
          "type": "bool"
        }
      ],
      "name": "setApprovalForAll",
      "outputs": [],
      "stateMutability": "nonpayable",
      "type": "function"
    },
    {
      "inputs": [],
      "name": "supply",
      "outputs": [
        {
          "internalType": "uint256",
          "name": "",
          "type": "uint256"
        }
      ],
      "stateMutability": "view",
      "type": "function"
    },
    {
      "inputs": [
        {
          "internalType": "bytes4",
          "name": "interfaceId",
          "type": "bytes4"
        }
      ],
      "name": "supportsInterface",
      "outputs": [
        {
          "internalType": "bool",
          "name": "",
          "type": "bool"
        }
      ],
      "stateMutability": "view",
      "type": "function"
    },
    {
      "inputs": [],
      "name": "symbol",
      "outputs": [
        {
          "internalType": "string",
          "name": "",
          "type": "string"
        }
      ],
      "stateMutability": "view",
      "type": "function"
    },
    {
      "inputs": [
        {
          "internalType": "uint256",
          "name": "index",
          "type": "uint256"
        }
      ],
      "name": "tokenByIndex",
      "outputs": [
        {
          "internalType": "uint256",
          "name": "",
          "type": "uint256"
        }
      ],
      "stateMutability": "view",
      "type": "function"
    },
    {
      "inputs": [
        {
          "internalType": "address",
          "name": "owner",
          "type": "address"
        },
        {
          "internalType": "uint256",
          "name": "index",
          "type": "uint256"
        }
      ],
      "name": "tokenOfOwnerByIndex",
      "outputs": [
        {
          "internalType": "uint256",
          "name": "",
          "type": "uint256"
        }
      ],
      "stateMutability": "view",
      "type": "function"
    },
    {
      "inputs": [
        {
          "internalType": "uint256",
          "name": "tokenId",
          "type": "uint256"
        }
      ],
      "name": "tokenURI",
      "outputs": [
        {
          "internalType": "string",
          "name": "",
          "type": "string"
        }
      ],
      "stateMutability": "view",
      "type": "function"
    },
    {
      "inputs": [],
      "name": "totalSupply",
      "outputs": [
        {
          "internalType": "uint256",
          "name": "",
          "type": "uint256"
        }
      ],
      "stateMutability": "view",
      "type": "function"
    },
    {
      "inputs": [],
      "name": "totalTx",
      "outputs": [
        {
          "internalType": "uint256",
          "name": "",
          "type": "uint256"
        }
      ],
      "stateMutability": "view",
      "type": "function"
    },
    {
      "inputs": [
        {
          "internalType": "address",
          "name": "from",
          "type": "address"
        },
        {
          "internalType": "address",
          "name": "to",
          "type": "address"
        },
        {
          "internalType": "uint256",
          "name": "tokenId",
          "type": "uint256"
        }
      ],
      "name": "transferFrom",
      "outputs": [],
      "stateMutability": "payable",
      "type": "function"
    },
    {
      "inputs": [
        {
          "internalType": "address",
          "name": "newOwner",
          "type": "address"
        }
      ],
      "name": "transferOwnership",
      "outputs": [],
      "stateMutability": "nonpayable",
      "type": "function"
    },
    {
      "inputs": [
        {
          "internalType": "string",
          "name": "title",
          "type": "string"
        },
        {
          "internalType": "string",
          "name": "description",
          "type": "string"
        },
        {
          "internalType": "string",
          "name": "metadataURI",
          "type": "string"
        },
        {
          "internalType": "uint256",
          "name": "salesPrice",
          "type": "uint256"
        }
      ],
      "name": "payToMint",
      "outputs": [],
      "stateMutability": "payable",
      "type": "function"
    },
    {
      "inputs": [
        {
          "internalType": "uint256",
          "name": "id",
          "type": "uint256"
        }
      ],
      "name": "payToBuy",
      "outputs": [],
      "stateMutability": "payable",
      "type": "function"
    },
    {
      "inputs": [
        {
          "internalType": "uint256",
          "name": "id",
          "type": "uint256"
        },
        {
          "internalType": "uint256",
          "name": "newPrice",
          "type": "uint256"
        }
      ],
      "name": "changePrice",
      "outputs": [
        {
          "internalType": "bool",
          "name": "",
          "type": "bool"
        }
      ],
      "stateMutability": "nonpayable",
      "type": "function"
    },
    {
      "inputs": [],
      "name": "getAllNFTs",
      "outputs": [
        {
          "components": [
            {
              "internalType": "uint256",
              "name": "id",
              "type": "uint256"
            },
            {
              "internalType": "address",
              "name": "owner",
              "type": "address"
            },
            {
              "internalType": "uint256",
              "name": "cost",
              "type": "uint256"
            },
            {
              "internalType": "string",
              "name": "title",
              "type": "string"
            },
            {
              "internalType": "string",
              "name": "description",
              "type": "string"
            },
            {
              "internalType": "string",
              "name": "metadataURI",
              "type": "string"
            },
            {
              "internalType": "uint256",
              "name": "timestamp",
              "type": "uint256"
            }
          ],
          "internalType": "struct NFTMarketplace.Transaction[]",
          "name": "",
          "type": "tuple[]"
        }
      ],
      "stateMutability": "view",
      "type": "function"
    },
    {
      "inputs": [
        {
          "internalType": "uint256",
          "name": "id",
          "type": "uint256"
        }
      ],
      "name": "getNFTDetails",
      "outputs": [
        {
          "components": [
            {
              "internalType": "uint256",
              "name": "id",
              "type": "uint256"
            },
            {
              "internalType": "address",
              "name": "owner",
              "type": "address"
            },
            {
              "internalType": "uint256",
              "name": "cost",
              "type": "uint256"
            },
            {
              "internalType": "string",
              "name": "title",
              "type": "string"
            },
            {
              "internalType": "string",
              "name": "description",
              "type": "string"
            },
            {
              "internalType": "string",
              "name": "metadataURI",
              "type": "string"
            },
            {
              "internalType": "uint256",
              "name": "timestamp",
              "type": "uint256"
            }
          ],
          "internalType": "struct NFTMarketplace.Transaction",
          "name": "",
          "type": "tuple"
        }
      ],
      "stateMutability": "view",
      "type": "function"
    },
    {
      "inputs": [],
      "name": "getAllTransactions",
      "outputs": [
        {
          "components": [
            {
              "internalType": "uint256",
              "name": "id",
              "type": "uint256"
            },
            {
              "internalType": "address",
              "name": "owner",
              "type": "address"
            },
            {
              "internalType": "uint256",
              "name": "cost",
              "type": "uint256"
            },
            {
              "internalType": "string",
              "name": "title",
              "type": "string"
            },
            {
              "internalType": "string",
              "name": "description",
              "type": "string"
            },
            {
              "internalType": "string",
              "name": "metadataURI",
              "type": "string"
            },
            {
              "internalType": "uint256",
              "name": "timestamp",
              "type": "uint256"
            }
          ],
          "internalType": "struct NFTMarketplace.Transaction[]",
          "name": "",
          "type": "tuple[]"
        }
      ],
      "stateMutability": "view",
      "type": "function"
    }
  ],
  "bytecode": "0x60806040526000600f55600060105564174876e8006011553480156200002457600080fd5b50604051620034ee380380620034ee83398101604081905262000047916200028a565b8351849084906200006090600090602085019062000117565b5080516200007690600190602084019062000117565b505050620000936200008d620000c160201b60201c565b620000c5565b600e91909155600d80546001600160a01b0319166001600160a01b03909216919091179055506200035c9050565b3390565b600a80546001600160a01b038381166001600160a01b0319831681179093556040519116919082907f8be0079c531659141344cd1fd0a4f28419497f9722a3daafe3b4186f6b6457e090600090a35050565b82805462000125906200031f565b90600052602060002090601f01602090048101928262000149576000855562000194565b82601f106200016457805160ff191683800117855562000194565b8280016001018555821562000194579182015b828111156200019457825182559160200191906001019062000177565b50620001a2929150620001a6565b5090565b5b80821115620001a25760008155600101620001a7565b634e487b7160e01b600052604160045260246000fd5b600082601f830112620001e557600080fd5b81516001600160401b0380821115620002025762000202620001bd565b604051601f8301601f19908116603f011681019082821181831017156200022d576200022d620001bd565b816040528381526020925086838588010111156200024a57600080fd5b600091505b838210156200026e57858201830151818301840152908201906200024f565b83821115620002805760008385830101525b9695505050505050565b60008060008060808587031215620002a157600080fd5b84516001600160401b0380821115620002b957600080fd5b620002c788838901620001d3565b95506020870151915080821115620002de57600080fd5b50620002ed87828801620001d3565b60408701516060880151919550935090506001600160a01b03811681146200031457600080fd5b939692955090935050565b600181811c908216806200033457607f821691505b602082108114156200035657634e487b7160e01b600052602260045260246000fd5b50919050565b613182806200036c6000396000f3fe6080604052600436106101d85760003560e01c806370a0823111610102578063a22cb46511610095578063dbacc23711610064578063dbacc237146104ff578063e0391b0914610535578063e985e9c51461054a578063f2fde38b1461059357600080fd5b8063a22cb4651461048c578063b3de019c146104ac578063b88d4fde146104cc578063c87b56dd146104df57600080fd5b806382260f35116100d157806382260f35146104195780638da5cb5b1461044657806395d89b41146104645780639ba4b0171461047957600080fd5b806370a08231146103bb578063715018a6146103db5780637220cf39146103f0578063799c0c1e1461040657600080fd5b806323b872dd1161017a57806342842e0e1161014957806342842e0e1461034857806343bc16121461035b5780634f6ccce71461037b5780636352211e1461039b57600080fd5b806323b872dd146102dd57806327506f53146102f05780632f745c5914610312578063326bb4ad1461033257600080fd5b8063081812fc116101b6578063081812fc14610258578063095ea7b31461029057806313faede6146102b257806318160ddd146102c857600080fd5b806301ffc9a7146101dd578063047fc9aa1461021257806306fdde0314610236575b600080fd5b3480156101e957600080fd5b506101fd6101f836600461298a565b6105b3565b60405190151581526020015b60405180910390f35b34801561021e57600080fd5b50610228600f5481565b604051908152602001610209565b34801561024257600080fd5b5061024b6105de565b60405161020991906129ff565b34801561026457600080fd5b50610278610273366004612a12565b610670565b6040516001600160a01b039091168152602001610209565b34801561029c57600080fd5b506102b06102ab366004612a47565b61070a565b005b3480156102be57600080fd5b5061022860115481565b3480156102d457600080fd5b50600854610228565b6102b06102eb366004612a71565b610820565b3480156102fc57600080fd5b50610305610851565b6040516102099190612b32565b34801561031e57600080fd5b5061022861032d366004612a47565b610a9b565b34801561033e57600080fd5b50610228600e5481565b6102b0610356366004612a71565b610b31565b34801561036757600080fd5b50600d54610278906001600160a01b031681565b34801561038757600080fd5b50610228610396366004612a12565b610b4c565b3480156103a757600080fd5b506102786103b6366004612a12565b610bdf565b3480156103c757600080fd5b506102286103d6366004612b94565b610c56565b3480156103e757600080fd5b506102b0610cdd565b3480156103fc57600080fd5b5061022860105481565b6102b0610414366004612c5b565b610cf1565b34801561042557600080fd5b50610439610434366004612a12565b611081565b6040516102099190612ceb565b34801561045257600080fd5b50600a546001600160a01b0316610278565b34801561047057600080fd5b5061024b61130a565b6102b0610487366004612a12565b611319565b34801561049857600080fd5b506102b06104a7366004612cfe565b611830565b3480156104b857600080fd5b506101fd6104c7366004612d3a565b61183f565b6102b06104da366004612d5c565b61193d565b3480156104eb57600080fd5b5061024b6104fa366004612a12565b611975565b34801561050b57600080fd5b5061027861051a366004612a12565b600c602052600090815260409020546001600160a01b031681565b34801561054157600080fd5b50610305611a5d565b34801561055657600080fd5b506101fd610565366004612dd8565b6001600160a01b03918216600090815260056020908152604080832093909416825291909152205460ff1690565b34801561059f57600080fd5b506102b06105ae366004612b94565b611c9e565b60006001600160e01b0319821663780e9d6360e01b14806105d857506105d882611d17565b92915050565b6060600080546105ed90612e0b565b80601f016020809104026020016040519081016040528092919081815260200182805461061990612e0b565b80156106665780601f1061063b57610100808354040283529160200191610666565b820191906000526020600020905b81548152906001019060200180831161064957829003601f168201915b5050505050905090565b6000818152600260205260408120546001600160a01b03166106ee5760405162461bcd60e51b815260206004820152602c60248201527f4552433732313a20617070726f76656420717565727920666f72206e6f6e657860448201526b34b9ba32b73a103a37b5b2b760a11b60648201526084015b60405180910390fd5b506000908152600460205260409020546001600160a01b031690565b600061071582610bdf565b9050806001600160a01b0316836001600160a01b031614156107835760405162461bcd60e51b815260206004820152602160248201527f4552433732313a20617070726f76616c20746f2063757272656e74206f776e656044820152603960f91b60648201526084016106e5565b336001600160a01b038216148061079f575061079f8133610565565b6108115760405162461bcd60e51b815260206004820152603860248201527f4552433732313a20617070726f76652063616c6c6572206973206e6f74206f7760448201527f6e6572206e6f7220617070726f76656420666f7220616c6c000000000000000060648201526084016106e5565b61081b8383611d67565b505050565b61082a3382611dd5565b6108465760405162461bcd60e51b81526004016106e590612e46565b61081b838383611ecc565b60606012805480602002602001604051908101604052809291908181526020016000905b82821015610a925760008481526020908190206040805160e081018252600786029092018054835260018101546001600160a01b0316938301939093526002830154908201526003820180549192916060840191906108d390612e0b565b80601f01602080910402602001604051908101604052809291908181526020018280546108ff90612e0b565b801561094c5780601f106109215761010080835404028352916020019161094c565b820191906000526020600020905b81548152906001019060200180831161092f57829003601f168201915b5050505050815260200160048201805461096590612e0b565b80601f016020809104026020016040519081016040528092919081815260200182805461099190612e0b565b80156109de5780601f106109b3576101008083540402835291602001916109de565b820191906000526020600020905b8154815290600101906020018083116109c157829003601f168201915b505050505081526020016005820180546109f790612e0b565b80601f0160208091040260200160405190810160405280929190818152602001828054610a2390612e0b565b8015610a705780601f10610a4557610100808354040283529160200191610a70565b820191906000526020600020905b815481529060010190602001808311610a5357829003601f168201915b5050505050815260200160068201548152505081526020019060010190610875565b50505050905090565b6000610aa683610c56565b8210610b085760405162461bcd60e51b815260206004820152602b60248201527f455243373231456e756d657261626c653a206f776e657220696e646578206f7560448201526a74206f6620626f756e647360a81b60648201526084016106e5565b506001600160a01b03919091166000908152600660209081526040808320938352929052205490565b61081b8383836040518060200160405280600081525061193d565b6000610b5760085490565b8210610bba5760405162461bcd60e51b815260206004820152602c60248201527f455243373231456e756d657261626c653a20676c6f62616c20696e646578206f60448201526b7574206f6620626f756e647360a01b60648201526084016106e5565b60088281548110610bcd57610bcd612e97565b90600052602060002001549050919050565b6000818152600260205260408120546001600160a01b0316806105d85760405162461bcd60e51b815260206004820152602960248201527f4552433732313a206f776e657220717565727920666f72206e6f6e657869737460448201526832b73a103a37b5b2b760b91b60648201526084016106e5565b60006001600160a01b038216610cc15760405162461bcd60e51b815260206004820152602a60248201527f4552433732313a2062616c616e636520717565727920666f7220746865207a65604482015269726f206164647265737360b01b60648201526084016106e5565b506001600160a01b031660009081526003602052604090205490565b610ce5612077565b610cef60006120d1565b565b601154341015610d435760405162461bcd60e51b815260206004820152601a60248201527f457468657220746f6f206c6f7720666f72206d696e74696e672100000000000060448201526064016106e5565b600b82604051610d539190612ead565b9081526040519081900360200190205460ff1615610db35760405162461bcd60e51b815260206004820152601b60248201527f54686973204e465420697320616c7265616479206d696e74656421000000000060448201526064016106e5565b600a546001600160a01b0316331415610e035760405162461bcd60e51b815260206004820152601260248201527153616c6573206e6f7420616c6c6f7765642160701b60448201526064016106e5565b60006064600e5434610e159190612edf565b610e1f9190612efe565b600d54909150610e38906001600160a01b031682612123565b610e5c610e4d600a546001600160a01b031690565b610e578334612f20565b612123565b600f8054906000610e6c83612f37565b90915550506040805160e081018252600f548152336020808301918252928201858152606083018981526080840189905260a084018890524260c085015260138054600181018255600091909152845160079091027f66de8ffda797e3de9c05e8fc57b3bf0ec28a930d40b0d285d93c06501cf6a090810191825593517f66de8ffda797e3de9c05e8fc57b3bf0ec28a930d40b0d285d93c06501cf6a091850180546001600160a01b03929092166001600160a01b031990921691909117905591517f66de8ffda797e3de9c05e8fc57b3bf0ec28a930d40b0d285d93c06501cf6a09284015551805193949193610f8a937f66de8ffda797e3de9c05e8fc57b3bf0ec28a930d40b0d285d93c06501cf6a093019291909101906128db565b5060808201518051610fa69160048401916020909101906128db565b5060a08201518051610fc29160058401916020909101906128db565b5060c082015181600601555050336001600160a01b03167fb9508407a6eccb191d8da3286f4173697cf95604e9ea192fe5ab7c862b5221f6600f543486426040516110109493929190612f52565b60405180910390a261102433600f54612183565b6001600b846040516110369190612ead565b9081526040805160209281900383019020805460ff191660ff9490941693909317909255600f546000908152600c909152208054336001600160a01b03199091161790555050505050565b6110ca6040518060e001604052806000815260200160006001600160a01b0316815260200160008152602001606081526020016060815260200160608152602001600081525090565b60136110d7600184612f20565b815481106110e7576110e7612e97565b90600052602060002090600702016040518060e0016040529081600082015481526020016001820160009054906101000a90046001600160a01b03166001600160a01b03166001600160a01b031681526020016002820154815260200160038201805461115390612e0b565b80601f016020809104026020016040519081016040528092919081815260200182805461117f90612e0b565b80156111cc5780601f106111a1576101008083540402835291602001916111cc565b820191906000526020600020905b8154815290600101906020018083116111af57829003601f168201915b505050505081526020016004820180546111e590612e0b565b80601f016020809104026020016040519081016040528092919081815260200182805461121190612e0b565b801561125e5780601f106112335761010080835404028352916020019161125e565b820191906000526020600020905b81548152906001019060200180831161124157829003601f168201915b5050505050815260200160058201805461127790612e0b565b80601f01602080910402602001604051908101604052809291908181526020018280546112a390612e0b565b80156112f05780601f106112c5576101008083540402835291602001916112f0565b820191906000526020600020905b8154815290600101906020018083116112d357829003601f168201915b505050505081526020016006820154815250509050919050565b6060600180546105ed90612e0b565b6013611326600183612f20565b8154811061133657611336612e97565b9060005260206000209060070201600201543410156113975760405162461bcd60e51b815260206004820152601a60248201527f457468657220746f6f206c6f7720666f7220707572636861736500000000000060448201526064016106e5565b60136113a4600183612f20565b815481106113b4576113b4612e97565b60009182526020909120600790910201600101546001600160a01b03163314156114195760405162461bcd60e51b81526020600482015260166024820152754f7065726174696f6e204e4f5420416c6c6f7765642160501b60448201526064016106e5565b60006064600e543461142b9190612edf565b6114359190612efe565b600d5490915061144e906001600160a01b031682612123565b611495601361145e600185612f20565b8154811061146e5761146e612e97565b60009182526020909120600160079092020101546001600160a01b0316610e578334612f20565b601080549060006114a583612f37565b919050555060126040518060e001604052806010548152602001336001600160a01b0316815260200134815260200160136001866114e39190612f20565b815481106114f3576114f3612e97565b9060005260206000209060070201600301805461150f90612e0b565b80601f016020809104026020016040519081016040528092919081815260200182805461153b90612e0b565b80156115885780601f1061155d57610100808354040283529160200191611588565b820191906000526020600020905b81548152906001019060200180831161156b57829003601f168201915b505050918352505060200160136115a0600187612f20565b815481106115b0576115b0612e97565b906000526020600020906007020160040180546115cc90612e0b565b80601f01602080910402602001604051908101604052809291908181526020018280546115f890612e0b565b80156116455780601f1061161a57610100808354040283529160200191611645565b820191906000526020600020905b81548152906001019060200180831161162857829003601f168201915b5050509183525050602001601361165d600187612f20565b8154811061166d5761166d612e97565b9060005260206000209060070201600501805461168990612e0b565b80601f01602080910402602001604051908101604052809291908181526020018280546116b590612e0b565b80156117025780601f106116d757610100808354040283529160200191611702565b820191906000526020600020905b8154815290600101906020018083116116e557829003601f168201915b50505091835250504260209182015282546001808201855560009485529382902083516007909202019081558282015193810180546001600160a01b0319166001600160a01b0390951694909417909355604082015160028401556060820151805192939261177792600385019201906128db565b50608082015180516117939160048401916020909101906128db565b5060a082015180516117af9160058401916020909101906128db565b5060c0919091015160069091015560105433907fb9508407a6eccb191d8da3286f4173697cf95604e9ea192fe5ab7c862b5221f6903460136117f2600188612f20565b8154811061180257611802612e97565b9060005260206000209060070201600501426040516118249493929190612f82565b60405180910390a25050565b61183b33838361219d565b5050565b60008082116118815760405162461bcd60e51b815260206004820152600e60248201526d457468657220746f6f206c6f772160901b60448201526064016106e5565b601361188e600185612f20565b8154811061189e5761189e612e97565b60009182526020909120600790910201600101546001600160a01b031633146119025760405162461bcd60e51b81526020600482015260166024820152754f7065726174696f6e204e4f5420416c6c6f7765642160501b60448201526064016106e5565b816013611910600186612f20565b8154811061192057611920612e97565b600091825260209091206002600790920201015550600192915050565b6119473383611dd5565b6119635760405162461bcd60e51b81526004016106e590612e46565b61196f8484848461226c565b50505050565b6000818152600260205260409020546060906001600160a01b03166119f45760405162461bcd60e51b815260206004820152602f60248201527f4552433732314d657461646174613a2055524920717565727920666f72206e6f60448201526e3732bc34b9ba32b73a103a37b5b2b760891b60648201526084016106e5565b6000611a0b60408051602081019091526000815290565b90506000815111611a2b5760405180602001604052806000815250611a56565b80611a358461229f565b604051602001611a46929190613043565b6040516020818303038152906040525b9392505050565b60606013805480602002602001604051908101604052809291908181526020016000905b82821015610a925760008481526020908190206040805160e081018252600786029092018054835260018101546001600160a01b031693830193909352600283015490820152600382018054919291606084019190611adf90612e0b565b80601f0160208091040260200160405190810160405280929190818152602001828054611b0b90612e0b565b8015611b585780601f10611b2d57610100808354040283529160200191611b58565b820191906000526020600020905b815481529060010190602001808311611b3b57829003601f168201915b50505050508152602001600482018054611b7190612e0b565b80601f0160208091040260200160405190810160405280929190818152602001828054611b9d90612e0b565b8015611bea5780601f10611bbf57610100808354040283529160200191611bea565b820191906000526020600020905b815481529060010190602001808311611bcd57829003601f168201915b50505050508152602001600582018054611c0390612e0b565b80601f0160208091040260200160405190810160405280929190818152602001828054611c2f90612e0b565b8015611c7c5780601f10611c5157610100808354040283529160200191611c7c565b820191906000526020600020905b815481529060010190602001808311611c5f57829003601f168201915b5050505050815260200160068201548152505081526020019060010190611a81565b611ca6612077565b6001600160a01b038116611d0b5760405162461bcd60e51b815260206004820152602660248201527f4f776e61626c653a206e6577206f776e657220697320746865207a65726f206160448201526564647265737360d01b60648201526084016106e5565b611d14816120d1565b50565b60006001600160e01b031982166380ac58cd60e01b1480611d4857506001600160e01b03198216635b5e139f60e01b145b806105d857506301ffc9a760e01b6001600160e01b03198316146105d8565b600081815260046020526040902080546001600160a01b0319166001600160a01b0384169081179091558190611d9c82610bdf565b6001600160a01b03167f8c5be1e5ebec7d5bd14f71427d1e84f3dd0314c0f7b2291e5b200ac8c7c3b92560405160405180910390a45050565b6000818152600260205260408120546001600160a01b0316611e4e5760405162461bcd60e51b815260206004820152602c60248201527f4552433732313a206f70657261746f7220717565727920666f72206e6f6e657860448201526b34b9ba32b73a103a37b5b2b760a11b60648201526084016106e5565b6000611e5983610bdf565b9050806001600160a01b0316846001600160a01b03161480611e945750836001600160a01b0316611e8984610670565b6001600160a01b0316145b80611ec457506001600160a01b0380821660009081526005602090815260408083209388168352929052205460ff165b949350505050565b826001600160a01b0316611edf82610bdf565b6001600160a01b031614611f475760405162461bcd60e51b815260206004820152602960248201527f4552433732313a207472616e73666572206f6620746f6b656e2074686174206960448201526839903737ba1037bbb760b91b60648201526084016106e5565b6001600160a01b038216611fa95760405162461bcd60e51b8152602060048201526024808201527f4552433732313a207472616e7366657220746f20746865207a65726f206164646044820152637265737360e01b60648201526084016106e5565b611fb483838361233c565b611fbf600082611d67565b6001600160a01b0383166000908152600360205260408120805460019290611fe8908490612f20565b90915550506001600160a01b0382166000908152600360205260408120805460019290612016908490613072565b909155505060008181526002602052604080822080546001600160a01b0319166001600160a01b0386811691821790925591518493918716917fddf252ad1be2c89b69c2b068fc378daa952ba7f163c4a11628f55a4df523b3ef91a4505050565b600a546001600160a01b03163314610cef5760405162461bcd60e51b815260206004820181905260248201527f4f776e61626c653a2063616c6c6572206973206e6f7420746865206f776e657260448201526064016106e5565b600a80546001600160a01b038381166001600160a01b0319831681179093556040519116919082907f8be0079c531659141344cd1fd0a4f28419497f9722a3daafe3b4186f6b6457e090600090a35050565b6000826001600160a01b03168260405160006040518083038185875af1925050503d8060008114612170576040519150601f19603f3d011682016040523d82523d6000602084013e612175565b606091505b505090508061081b57600080fd5b61183b8282604051806020016040528060008152506123f4565b816001600160a01b0316836001600160a01b031614156121ff5760405162461bcd60e51b815260206004820152601960248201527f4552433732313a20617070726f766520746f2063616c6c65720000000000000060448201526064016106e5565b6001600160a01b03838116600081815260056020908152604080832094871680845294825291829020805460ff191686151590811790915591519182527f17307eab39ab6107e8899845ad3d59bd9653f200f220920489ca2b5937696c31910160405180910390a3505050565b612277848484611ecc565b61228384848484612427565b61196f5760405162461bcd60e51b81526004016106e59061308a565b606060006122ac83612525565b600101905060008167ffffffffffffffff8111156122cc576122cc612baf565b6040519080825280601f01601f1916602001820160405280156122f6576020820181803683370190505b5090508181016020015b600019016f181899199a1a9b1b9c1cb0b131b232b360811b600a86061a8153600a850494508461232f57612334565b612300565b509392505050565b6001600160a01b0383166123975761239281600880546000838152600960205260408120829055600182018355919091527ff3f7a9fe364faab93b216da50a3214154f22a0a2b415b23a84c8169e8b636ee30155565b6123ba565b816001600160a01b0316836001600160a01b0316146123ba576123ba83826125fd565b6001600160a01b0382166123d15761081b8161269a565b826001600160a01b0316826001600160a01b03161461081b5761081b8282612749565b6123fe838361278d565b61240b6000848484612427565b61081b5760405162461bcd60e51b81526004016106e59061308a565b60006001600160a01b0384163b1561251a57604051630a85bd0160e11b81526001600160a01b0385169063150b7a029061246b9033908990889088906004016130dc565b6020604051808303816000875af19250505080156124a6575060408051601f3d908101601f191682019092526124a391810190613119565b60015b612500573d8080156124d4576040519150601f19603f3d011682016040523d82523d6000602084013e6124d9565b606091505b5080516124f85760405162461bcd60e51b81526004016106e59061308a565b805181602001fd5b6001600160e01b031916630a85bd0160e11b149050611ec4565b506001949350505050565b60008072184f03e93ff9f4daa797ed6e38ed64bf6a1f0160401b83106125645772184f03e93ff9f4daa797ed6e38ed64bf6a1f0160401b830492506040015b6d04ee2d6d415b85acef81000000008310612590576d04ee2d6d415b85acef8100000000830492506020015b662386f26fc1000083106125ae57662386f26fc10000830492506010015b6305f5e10083106125c6576305f5e100830492506008015b61271083106125da57612710830492506004015b606483106125ec576064830492506002015b600a83106105d85760010192915050565b6000600161260a84610c56565b6126149190612f20565b600083815260076020526040902054909150808214612667576001600160a01b03841660009081526006602090815260408083208584528252808320548484528184208190558352600790915290208190555b5060009182526007602090815260408084208490556001600160a01b039094168352600681528383209183525290812055565b6008546000906126ac90600190612f20565b600083815260096020526040812054600880549394509092849081106126d4576126d4612e97565b9060005260206000200154905080600883815481106126f5576126f5612e97565b600091825260208083209091019290925582815260099091526040808220849055858252812055600880548061272d5761272d613136565b6001900381819060005260206000200160009055905550505050565b600061275483610c56565b6001600160a01b039093166000908152600660209081526040808320868452825280832085905593825260079052919091209190915550565b6001600160a01b0382166127e35760405162461bcd60e51b815260206004820181905260248201527f4552433732313a206d696e7420746f20746865207a65726f206164647265737360448201526064016106e5565b6000818152600260205260409020546001600160a01b0316156128485760405162461bcd60e51b815260206004820152601c60248201527f4552433732313a20746f6b656e20616c7265616479206d696e7465640000000060448201526064016106e5565b6128546000838361233c565b6001600160a01b038216600090815260036020526040812080546001929061287d908490613072565b909155505060008181526002602052604080822080546001600160a01b0319166001600160a01b03861690811790915590518392907fddf252ad1be2c89b69c2b068fc378daa952ba7f163c4a11628f55a4df523b3ef908290a45050565b8280546128e790612e0b565b90600052602060002090601f016020900481019282612909576000855561294f565b82601f1061292257805160ff191683800117855561294f565b8280016001018555821561294f579182015b8281111561294f578251825591602001919060010190612934565b5061295b92915061295f565b5090565b5b8082111561295b5760008155600101612960565b6001600160e01b031981168114611d1457600080fd5b60006020828403121561299c57600080fd5b8135611a5681612974565b60005b838110156129c25781810151838201526020016129aa565b8381111561196f5750506000910152565b600081518084526129eb8160208601602086016129a7565b601f01601f19169290920160200192915050565b602081526000611a5660208301846129d3565b600060208284031215612a2457600080fd5b5035919050565b80356001600160a01b0381168114612a4257600080fd5b919050565b60008060408385031215612a5a57600080fd5b612a6383612a2b565b946020939093013593505050565b600080600060608486031215612a8657600080fd5b612a8f84612a2b565b9250612a9d60208501612a2b565b9150604084013590509250925092565b8051825260018060a01b036020820151166020830152604081015160408301526000606082015160e06060850152612ae860e08501826129d3565b905060808301518482036080860152612b0182826129d3565b91505060a083015184820360a0860152612b1b82826129d3565b91505060c083015160c08501528091505092915050565b6000602080830181845280855180835260408601915060408160051b870101925083870160005b82811015612b8757603f19888603018452612b75858351612aad565b94509285019290850190600101612b59565b5092979650505050505050565b600060208284031215612ba657600080fd5b611a5682612a2b565b634e487b7160e01b600052604160045260246000fd5b600067ffffffffffffffff80841115612be057612be0612baf565b604051601f8501601f19908116603f01168101908282118183101715612c0857612c08612baf565b81604052809350858152868686011115612c2157600080fd5b858560208301376000602087830101525050509392505050565b600082601f830112612c4c57600080fd5b611a5683833560208501612bc5565b60008060008060808587031215612c7157600080fd5b843567ffffffffffffffff80821115612c8957600080fd5b612c9588838901612c3b565b95506020870135915080821115612cab57600080fd5b612cb788838901612c3b565b94506040870135915080821115612ccd57600080fd5b50612cda87828801612c3b565b949793965093946060013593505050565b602081526000611a566020830184612aad565b60008060408385031215612d1157600080fd5b612d1a83612a2b565b915060208301358015158114612d2f57600080fd5b809150509250929050565b60008060408385031215612d4d57600080fd5b50508035926020909101359150565b60008060008060808587031215612d7257600080fd5b612d7b85612a2b565b9350612d8960208601612a2b565b925060408501359150606085013567ffffffffffffffff811115612dac57600080fd5b8501601f81018713612dbd57600080fd5b612dcc87823560208401612bc5565b91505092959194509250565b60008060408385031215612deb57600080fd5b612df483612a2b565b9150612e0260208401612a2b565b90509250929050565b600181811c90821680612e1f57607f821691505b60208210811415612e4057634e487b7160e01b600052602260045260246000fd5b50919050565b60208082526031908201527f4552433732313a207472616e736665722063616c6c6572206973206e6f74206f6040820152701ddb995c881b9bdc88185c1c1c9bdd9959607a1b606082015260800190565b634e487b7160e01b600052603260045260246000fd5b60008251612ebf8184602087016129a7565b9190910192915050565b634e487b7160e01b600052601160045260246000fd5b6000816000190483118215151615612ef957612ef9612ec9565b500290565b600082612f1b57634e487b7160e01b600052601260045260246000fd5b500490565b600082821015612f3257612f32612ec9565b500390565b6000600019821415612f4b57612f4b612ec9565b5060010190565b848152836020820152608060408201526000612f7160808301856129d3565b905082606083015295945050505050565b848152600060208581840152608060408401526000855481600182811c915080831680612fb057607f831692505b858310811415612fce57634e487b7160e01b85526022600452602485fd5b6080880183905260a08801818015612fed5760018114612ffe57613029565b60ff19861682528782019650613029565b60008c81526020902060005b868110156130235781548482015290850190890161300a565b83019750505b505050505050809250505082606083015295945050505050565b600083516130558184602088016129a7565b8351908301906130698183602088016129a7565b01949350505050565b6000821982111561308557613085612ec9565b500190565b60208082526032908201527f4552433732313a207472616e7366657220746f206e6f6e20455243373231526560408201527131b2b4bb32b91034b6b83632b6b2b73a32b960711b606082015260800190565b6001600160a01b038581168252841660208201526040810183905260806060820181905260009061310f908301846129d3565b9695505050505050565b60006020828403121561312b57600080fd5b8151611a5681612974565b634e487b7160e01b600052603160045260246000fdfea2646970667358221220f09004a057f7942621ead1faa80b5d73c419b5b5e998fe751ecc55b3ad476f0a64736f6c634300080b0033",
  "immutableReferences": {},
  "source": "// SPDX-License-Identifier: MIT\r\n\r\npragma solidity >=0.7.0 <0.9.0;\r\n\r\nimport \"./ERC721.sol\";\r\nimport \"./ERC721Enumerable.sol\";\r\nimport \"@openzeppelin/contracts/access/Ownable.sol\";\r\n\r\ncontract NFTMarketplace is ERC721Enumerable, Ownable {\r\n    using Strings for uint256;\r\n\r\n    mapping(string => uint8) existingURIs;\r\n    mapping(uint256 => address) public holderOf;\r\n\r\n    address public artist;\r\n    uint256 public royalityFee;\r\n    uint256 public supply = 0;\r\n    uint256 public totalTx = 0;\r\n    uint256 public cost = 0.0000001 ether;\r\n\r\n    event Sale(\r\n        uint256 id,\r\n        address indexed owner,\r\n        uint256 cost,\r\n        string metadataURI,\r\n        uint256 timestamp\r\n    );\r\n\r\n    struct Transaction {\r\n        uint256 id;\r\n        address owner;\r\n        uint256 cost;\r\n        string title;\r\n        string description;\r\n        string metadataURI;\r\n        uint256 timestamp;\r\n    }\r\n\r\n    Transaction[] transactions;\r\n    Transaction[] minted;\r\n\r\n    constructor (\r\n        string memory _name,\r\n        string memory _symbol,\r\n        uint256 _royalityFee,\r\n        address _artist\r\n    ) ERC721(_name, _symbol) {\r\n        royalityFee = _royalityFee;\r\n        artist = _artist;\r\n    }\r\n\r\n    function payToMint(string memory title, string memory description, string memory metadataURI, uint256 salesPrice) external payable {\r\n        require(msg.value >= cost, \"Ether too low for minting!\");\r\n        require(existingURIs[metadataURI] == 0, \"This NFT is already minted!\");\r\n        require(msg.sender != owner(), \"Sales not allowed!\");\r\n\r\n        uint256 royality = (msg.value * royalityFee) / 100;\r\n        payTo(artist, royality);\r\n        payTo(owner(), (msg.value - royality));\r\n\r\n        supply++;\r\n\r\n        minted.push(\r\n            Transaction(\r\n                supply,\r\n                msg.sender,\r\n                salesPrice,\r\n                title,\r\n                description,\r\n                metadataURI,\r\n                block.timestamp\r\n            )      \r\n        );\r\n\r\n        emit Sale(supply, msg.sender, msg.value, metadataURI, block.timestamp);\r\n\r\n        _safeMint(msg.sender, supply);\r\n        existingURIs[metadataURI] = 1;\r\n        holderOf[supply] = msg.sender;\r\n    }\r\n\r\n    function payToBuy(uint256 id) external payable {\r\n        require(msg.value >= minted[id - 1].cost, \"Ether too low for purchase\");\r\n        require(msg.sender != minted[id - 1].owner, \"Operation NOT Allowed!\");\r\n\r\n        uint256 royality = (msg.value * royalityFee) / 100;\r\n        payTo(artist, royality);\r\n        payTo(minted[id - 1].owner, (msg.value - royality));\r\n\r\n        totalTx++;\r\n\r\n        transactions.push(\r\n            Transaction({\r\n                id: totalTx,\r\n                owner: msg.sender,\r\n                cost: msg.value,\r\n                title: minted[id - 1].title,\r\n                description: minted[id - 1].description,\r\n                metadataURI: minted[id - 1].metadataURI,\r\n                timestamp: block.timestamp\r\n            })\r\n        );\r\n\r\n        emit Sale(totalTx, msg.sender, msg.value, minted[id - 1].metadataURI, block.timestamp);\r\n    }\r\n\r\n    function changePrice(uint256 id, uint256 newPrice) external returns (bool){\r\n        require(newPrice > 0 ether, \"Ether too low!\");\r\n        require(msg.sender == minted[id - 1].owner, \"Operation NOT Allowed!\");\r\n\r\n        minted[id - 1].cost = newPrice;\r\n        return true;\r\n    }\r\n\r\n    function payTo(address reciever, uint256 amount) internal {\r\n        (bool success, ) = payable(reciever).call{value: amount}(\"\");\r\n        require(success);\r\n    }\r\n\r\n    function getAllNFTs() external view returns (Transaction[] memory) {\r\n        return minted;\r\n    }\r\n\r\n    function getNFTDetails(uint256 id) external view returns (Transaction memory) {\r\n        /*bool exist = false;\r\n        for (uint256 i = 0; i < minted.length; i++){\r\n            if(id == minted[i].id) {\r\n                exist = true;\r\n                break;\r\n            }\r\n        }\r\n        require(exist , \"\");*/\r\n\r\n        return minted[id - 1];\r\n    }\r\n\r\n    function getAllTransactions() external view returns (Transaction[] memory) {\r\n        return transactions;\r\n    }\r\n\r\n    \r\n}",
  "sourcePath": "C:\\Users\\lazar_ynxj6f7\\Documents\\GitHub\\DAPPs\\NFTMarketplace\\src\\contracts\\NFTMarketplace.sol",
  "compiler": {
    "name": "solc",
    "version": "0.8.11+commit.d7f03943.Emscripten.clang"
  },
  "schemaVersion": "3.4.16",
  "updatedAt": "2023-12-19T10:44:02.756Z",
  "devdoc": {
    "kind": "dev",
    "methods": {
      "approve(address,uint256)": {
        "details": "See {IERC721-approve}."
      },
      "balanceOf(address)": {
        "details": "See {IERC721-balanceOf}."
      },
      "getApproved(uint256)": {
        "details": "See {IERC721-getApproved}."
      },
      "isApprovedForAll(address,address)": {
        "details": "See {IERC721-isApprovedForAll}."
      },
      "name()": {
        "details": "See {IERC721Metadata-name}."
      },
      "owner()": {
        "details": "Returns the address of the current owner."
      },
      "ownerOf(uint256)": {
        "details": "See {IERC721-ownerOf}."
      },
      "renounceOwnership()": {
        "details": "Leaves the contract without owner. It will not be possible to call `onlyOwner` functions. Can only be called by the current owner. NOTE: Renouncing ownership will leave the contract without an owner, thereby disabling any functionality that is only available to the owner."
      },
      "safeTransferFrom(address,address,uint256)": {
        "details": "See {IERC721-safeTransferFrom}."
      },
      "safeTransferFrom(address,address,uint256,bytes)": {
        "details": "See {IERC721-safeTransferFrom}."
      },
      "setApprovalForAll(address,bool)": {
        "details": "See {IERC721-setApprovalForAll}."
      },
      "supportsInterface(bytes4)": {
        "details": "See {IERC165-supportsInterface}."
      },
      "symbol()": {
        "details": "See {IERC721Metadata-symbol}."
      },
      "tokenByIndex(uint256)": {
        "details": "See {IERC721Enumerable-tokenByIndex}."
      },
      "tokenOfOwnerByIndex(address,uint256)": {
        "details": "See {IERC721Enumerable-tokenOfOwnerByIndex}."
      },
      "tokenURI(uint256)": {
        "details": "See {IERC721Metadata-tokenURI}."
      },
      "totalSupply()": {
        "details": "See {IERC721Enumerable-totalSupply}."
      },
      "transferFrom(address,address,uint256)": {
        "details": "See {IERC721-transferFrom}."
      },
      "transferOwnership(address)": {
        "details": "Transfers ownership of the contract to a new account (`newOwner`). Can only be called by the current owner."
      }
    },
    "version": 1
  },
  "userdoc": {
    "kind": "user",
    "methods": {},
    "version": 1
  }
}